{
  "address": "0xb20d232d14428767b784c55879dc4E15Fe617c06",
  "abi": [
    {
      "inputs": [
        {
          "internalType": "address",
          "name": "_owner",
          "type": "address"
        },
        {
          "internalType": "contract IRiscZeroVerifier",
          "name": "_verifier",
          "type": "address"
        },
        {
          "internalType": "bytes32",
          "name": "_imageId",
          "type": "bytes32"
        }
      ],
      "stateMutability": "nonpayable",
      "type": "constructor"
    },
    {
      "anonymous": false,
      "inputs": [
        {
          "indexed": false,
          "internalType": "uint256",
          "name": "projectId",
          "type": "uint256"
        },
        {
          "indexed": false,
          "internalType": "string",
          "name": "domain",
          "type": "string"
        },
        {
          "indexed": false,
          "internalType": "address",
          "name": "owner",
          "type": "address"
        }
      ],
      "name": "ProjectAdded",
      "type": "event"
    },
    {
      "inputs": [],
      "name": "MAGIC",
      "outputs": [
        {
          "internalType": "bytes",
          "name": "",
          "type": "bytes"
        }
      ],
      "stateMutability": "view",
      "type": "function"
    },
    {
      "inputs": [
        {
          "internalType": "string",
          "name": "_domain",
          "type": "string"
        },
        {
          "internalType": "string",
          "name": "_contact",
          "type": "string"
        },
        {
          "internalType": "address[]",
          "name": "_contracts",
          "type": "address[]"
        },
        {
          "internalType": "address",
          "name": "_owner",
          "type": "address"
        },
        {
          "internalType": "bytes",
          "name": "receipt",
          "type": "bytes"
        }
      ],
      "name": "addProject",
      "outputs": [],
      "stateMutability": "nonpayable",
      "type": "function"
    },
    {
      "inputs": [
        {
          "internalType": "uint256",
          "name": "limit",
          "type": "uint256"
        },
        {
          "internalType": "uint256",
          "name": "offset",
          "type": "uint256"
        }
      ],
      "name": "getProjectList",
      "outputs": [
        {
          "components": [
            {
              "internalType": "address",
              "name": "owner",
              "type": "address"
            },
            {
              "internalType": "address[]",
              "name": "contracts",
              "type": "address[]"
            },
            {
              "internalType": "string",
              "name": "domain",
              "type": "string"
            },
            {
              "internalType": "string",
              "name": "contact",
              "type": "string"
            }
          ],
          "internalType": "struct ODESEC.ProjectData[]",
          "name": "",
          "type": "tuple[]"
        }
      ],
      "stateMutability": "view",
      "type": "function"
    },
    {
      "inputs": [],
      "name": "imageId",
      "outputs": [
        {
          "internalType": "bytes32",
          "name": "",
          "type": "bytes32"
        }
      ],
      "stateMutability": "view",
      "type": "function"
    },
    {
      "inputs": [
        {
          "internalType": "string",
          "name": "domain",
          "type": "string"
        },
        {
          "internalType": "address",
          "name": "_owner",
          "type": "address"
        }
      ],
      "name": "makeChallenge",
      "outputs": [
        {
          "internalType": "bytes20",
          "name": "",
          "type": "bytes20"
        }
      ],
      "stateMutability": "pure",
      "type": "function"
    },
    {
      "inputs": [],
      "name": "owner",
      "outputs": [
        {
          "internalType": "address",
          "name": "",
          "type": "address"
        }
      ],
      "stateMutability": "view",
      "type": "function"
    },
    {
      "inputs": [
        {
          "internalType": "string",
          "name": "_domain",
          "type": "string"
        }
      ],
      "name": "projectIdOfDomain",
      "outputs": [
        {
          "internalType": "uint256",
          "name": "",
          "type": "uint256"
        }
      ],
      "stateMutability": "view",
      "type": "function"
    },
    {
      "inputs": [
        {
          "internalType": "bytes32",
          "name": "",
          "type": "bytes32"
        }
      ],
      "name": "projectIds",
      "outputs": [
        {
          "internalType": "uint256",
          "name": "",
          "type": "uint256"
        }
      ],
      "stateMutability": "view",
      "type": "function"
    },
    {
      "inputs": [
        {
          "internalType": "uint256",
          "name": "",
          "type": "uint256"
        }
      ],
      "name": "projects",
      "outputs": [
        {
          "internalType": "address",
          "name": "owner",
          "type": "address"
        },
        {
          "internalType": "string",
          "name": "domain",
          "type": "string"
        },
        {
          "internalType": "string",
          "name": "contact",
          "type": "string"
        }
      ],
      "stateMutability": "view",
      "type": "function"
    },
    {
      "inputs": [],
      "name": "totalProjects",
      "outputs": [
        {
          "internalType": "uint256",
          "name": "",
          "type": "uint256"
        }
      ],
      "stateMutability": "view",
      "type": "function"
    },
    {
      "inputs": [
        {
          "internalType": "bytes32",
          "name": "_imageId",
          "type": "bytes32"
        }
      ],
      "name": "updateImageId",
      "outputs": [],
      "stateMutability": "nonpayable",
      "type": "function"
    },
    {
      "inputs": [
        {
          "internalType": "uint256",
          "name": "projectId",
          "type": "uint256"
        },
        {
          "internalType": "string",
          "name": "contact",
          "type": "string"
        },
        {
          "internalType": "address[]",
          "name": "contracts",
          "type": "address[]"
        }
      ],
      "name": "updateProject",
      "outputs": [],
      "stateMutability": "nonpayable",
      "type": "function"
    },
    {
      "inputs": [],
      "name": "verifier",
      "outputs": [
        {
          "internalType": "contract IRiscZeroVerifier",
          "name": "",
          "type": "address"
        }
      ],
      "stateMutability": "view",
      "type": "function"
    }
  ],
  "transactionHash": "0x50318f84a66c17cbcb487656762d2283f77723706e6772b7ea05e8b1a860591d",
  "args": [
    "0x7fDf85917BAf7E5c3f06AdF59506eD3E4201c43B",
    "0x5A5A08A118E11A4FE56D5c7cc752aAb7d45330f5",
    "0xb5564c4222e90c1cd6384306a262edc0cd0ddb8443d930f95f202e13c81b25b3"
  ],
  "numDeployments": 1,
  "solcInputHash": "042a57bbf236d7c5a3f27965dc35ad75",
  "bytecode": "0x60a060405234801561001057600080fd5b506040516200172e3803806200172e83398101604081905261003191610078565b6001600160a01b03928316608052600080546001600160a01b03191692909316919091179091556001556100bb565b6001600160a01b038116811461007557600080fd5b50565b60008060006060848603121561008d57600080fd5b835161009881610060565b60208501519093506100a981610060565b80925050604084015190509250925092565b608051611650620000de600039600081816101e30152610a7401526116506000f3fe608060405234801561001057600080fd5b50600436106100cf5760003560e01c80638da5cb5b1161008c578063c08f382d11610066578063c08f382d14610223578063c182e72314610236578063c5fa21f914610256578063ef3f7dd51461026957600080fd5b80638da5cb5b146101de5780639c361e4e14610205578063ac2112be1461020e57600080fd5b80630f9817ee146100d4578063107046bd1461010a5780632b7ac3f31461012c578063499e3d95146101575780635e41813d1461017757806365883252146101a8575b600080fd5b6100e76100e2366004610e54565b610272565b6040516bffffffffffffffffffffffff1990911681526020015b60405180910390f35b61011d610118366004610ea2565b6102c5565b60405161010193929190610f0b565b60005461013f906001600160a01b031681565b6040516001600160a01b039091168152602001610101565b61016a610165366004610f4b565b610402565b6040516101019190610f6d565b61019b604051806040016040528060058152602001644f4453454360d81b81525081565b6040516101019190611053565b6101d06101b6366004611066565b805160209182012060009081526004909152604090205490565b604051908152602001610101565b61013f7f000000000000000000000000000000000000000000000000000000000000000081565b6101d060025481565b61022161021c36600461112a565b6106c0565b005b610221610231366004610ea2565b610a69565b6101d0610244366004610ea2565b60046020526000908152604090205481565b6102216102643660046111fc565b610ad6565b6101d060015481565b6000604051806040016040528060058152602001644f4453454360d81b81525083836040516020016102a693929190611269565b6040516020818303038152906040528051906020012090505b92915050565b600360205260009081526040902080546002820180546001600160a01b0390921692916102f1906112b4565b80601f016020809104026020016040519081016040528092919081815260200182805461031d906112b4565b801561036a5780601f1061033f5761010080835404028352916020019161036a565b820191906000526020600020905b81548152906001019060200180831161034d57829003601f168201915b50505050509080600301805461037f906112b4565b80601f01602080910402602001604051908101604052809291908181526020018280546103ab906112b4565b80156103f85780601f106103cd576101008083540402835291602001916103f8565b820191906000526020600020905b8154815290600101906020018083116103db57829003601f168201915b5050505050905083565b60606000826002546104149190611304565b8411610420578361042e565b8260025461042e9190611304565b905060008167ffffffffffffffff81111561044b5761044b610d6b565b6040519080825280602002602001820160405280156104b057816020015b61049d604051806080016040528060006001600160a01b031681526020016060815260200160608152602001606081525090565b8152602001906001900390816104695790505b5090506104be600185611317565b935060005b828110156106b757600360006104d98388611317565b81526020808201929092526040908101600020815160808101835281546001600160a01b03168152600182018054845181870281018701909552808552919492938584019390929083018282801561055a57602002820191906000526020600020905b81546001600160a01b0316815260019091019060200180831161053c575b50505050508152602001600282018054610573906112b4565b80601f016020809104026020016040519081016040528092919081815260200182805461059f906112b4565b80156105ec5780601f106105c1576101008083540402835291602001916105ec565b820191906000526020600020905b8154815290600101906020018083116105cf57829003601f168201915b50505050508152602001600382018054610605906112b4565b80601f0160208091040260200160405190810160405280929190818152602001828054610631906112b4565b801561067e5780601f106106535761010080835404028352916020019161067e565b820191906000526020600020905b81548152906001019060200180831161066157829003601f168201915b5050505050815250508282815181106106995761069961132a565b602002602001018190525080806106af90611340565b9150506104c3565b50949350505050565b6000806000838060200190518101906106d9919061139e565b919450925090506001600160a01b03851661072b5760405162461bcd60e51b815260206004820152600d60248201526c24b73b30b634b21037bbb732b960991b60448201526064015b60405180910390fd5b600388511161076d5760405162461bcd60e51b815260206004820152600e60248201526d24b73b30b634b2103237b6b0b4b760911b6044820152606401610722565b61078b88805160209182012060009081526004909152604090205490565b156107d15760405162461bcd60e51b815260206004820152601660248201527550726f6a65637420616c72656164792065786973747360501b6044820152606401610722565b6000546001546040516001600160a01b0390921691636efef00991849186906002906107fe908a90611401565b602060405180830381855afa15801561081b573d6000803e3d6000fd5b5050506040513d601f19601f8201168201806040525081019061083e919061141d565b6040518563ffffffff1660e01b815260040161085d9493929190611436565b602060405180830381865afa15801561087a573d6000803e3d6000fd5b505050506040513d601f19601f8201168201806040525081019061089e9190611465565b6108a757600080fd5b60006108b38987610272565b905060006108c082610b68565b8a6040516020016108d2929190611487565b60405160208183030381529060405290506108ed8186610cca565b61092d5760405162461bcd60e51b8152602060048201526011602482015270496e76616c6964204368616c6c656e676560781b6044820152606401610722565b6001600260008282546109409190611317565b92505081905550600060025490506040518060800160405280896001600160a01b031681526020018a81526020018c81526020018b8152506003600083815260200190815260200160002060008201518160000160006101000a8154816001600160a01b0302191690836001600160a01b0316021790555060208201518160010190805190602001906109d4929190610cf1565b50604082015160028201906109e99082611512565b50606082015160038201906109fe9082611512565b5090505080600460008d805190602001208152602001908152602001600020819055507f0c37be42d09c868de3d7b2154026972d847472b2d254f8f2f6a8f1be3a450e6a818c8a604051610a54939291906115d2565b60405180910390a15050505050505050505050565b336001600160a01b037f00000000000000000000000000000000000000000000000000000000000000001614610ad15760405162461bcd60e51b815260206004820152600d60248201526c2737ba103a34329027bbb732b960991b6044820152606401610722565b600155565b600083815260036020526040902080546001600160a01b03163314610b3d5760405162461bcd60e51b815260206004820152601d60248201527f4f6e6c79206f776e65722063616e207570646174652070726f6a6563740000006044820152606401610722565b60038101610b4b8482611512565b508151610b619060018301906020850190610cf1565b5050505050565b604080518082018252601081526f181899199a1a9b1b9c1cb0b131b232b360811b60208201528151602880825260608281019094526000919060208201818036833701905050905060005b6014811015610cc257826004868360148110610bd157610bd161132a565b1a60f81b6001600160f81b031916901c60f81c60ff1681518110610bf757610bf761132a565b01602001516001600160f81b03191682610c12836002611603565b81518110610c2257610c2261132a565b60200101906001600160f81b031916908160001a90535082858260148110610c4c57610c4c61132a565b825191901a600f16908110610c6357610c6361132a565b01602001516001600160f81b03191682610c7e836002611603565b610c89906001611317565b81518110610c9957610c9961132a565b60200101906001600160f81b031916908160001a90535080610cba81611340565b915050610bb3565b509392505050565b600081518351148015610cea575081805190602001208380519060200120145b9392505050565b828054828255906000526020600020908101928215610d46579160200282015b82811115610d4657825182546001600160a01b0319166001600160a01b03909116178255602090920191600190910190610d11565b50610d52929150610d56565b5090565b5b80821115610d525760008155600101610d57565b634e487b7160e01b600052604160045260246000fd5b604051601f8201601f1916810167ffffffffffffffff81118282101715610daa57610daa610d6b565b604052919050565b600067ffffffffffffffff821115610dcc57610dcc610d6b565b50601f01601f191660200190565b6000610ded610de884610db2565b610d81565b9050828152838383011115610e0157600080fd5b828260208301376000602084830101529392505050565b600082601f830112610e2957600080fd5b610cea83833560208501610dda565b80356001600160a01b0381168114610e4f57600080fd5b919050565b60008060408385031215610e6757600080fd5b823567ffffffffffffffff811115610e7e57600080fd5b610e8a85828601610e18565b925050610e9960208401610e38565b90509250929050565b600060208284031215610eb457600080fd5b5035919050565b60005b83811015610ed6578181015183820152602001610ebe565b50506000910152565b60008151808452610ef7816020860160208601610ebb565b601f01601f19169290920160200192915050565b6001600160a01b0384168152606060208201819052600090610f2f90830185610edf565b8281036040840152610f418185610edf565b9695505050505050565b60008060408385031215610f5e57600080fd5b50508035926020909101359150565b60006020808301818452808551808352604092508286019150828160051b8701018488016000805b8481101561104457898403603f19018652825180516001600160a01b0390811686528982015160808b8801819052815190880181905260a0880192918c01919086905b80821015610ffa57835183168552938d0193928d019260019190910190610fd8565b50505050888201518682038a8801526110138282610edf565b915050606080830151925086820381880152506110308183610edf565b978a01979550505091870191600101610f95565b50919998505050505050505050565b602081526000610cea6020830184610edf565b60006020828403121561107857600080fd5b813567ffffffffffffffff81111561108f57600080fd5b61109b84828501610e18565b949350505050565b600082601f8301126110b457600080fd5b8135602067ffffffffffffffff8211156110d0576110d0610d6b565b8160051b6110df828201610d81565b92835284810182019282810190878511156110f957600080fd5b83870192505b8483101561111f5761111083610e38565b825291830191908301906110ff565b979650505050505050565b600080600080600060a0868803121561114257600080fd5b853567ffffffffffffffff8082111561115a57600080fd5b61116689838a01610e18565b9650602088013591508082111561117c57600080fd5b61118889838a01610e18565b9550604088013591508082111561119e57600080fd5b6111aa89838a016110a3565b94506111b860608901610e38565b935060808801359150808211156111ce57600080fd5b508601601f810188136111e057600080fd5b6111ef88823560208401610dda565b9150509295509295909350565b60008060006060848603121561121157600080fd5b83359250602084013567ffffffffffffffff8082111561123057600080fd5b61123c87838801610e18565b9350604086013591508082111561125257600080fd5b5061125f868287016110a3565b9150509250925092565b6000845161127b818460208901610ebb565b84519083019061128f818360208901610ebb565b60609490941b6bffffffffffffffffffffffff19169301928352505060140192915050565b600181811c908216806112c857607f821691505b6020821081036112e857634e487b7160e01b600052602260045260246000fd5b50919050565b634e487b7160e01b600052601160045260246000fd5b818103818111156102bf576102bf6112ee565b808201808211156102bf576102bf6112ee565b634e487b7160e01b600052603260045260246000fd5b600060018201611352576113526112ee565b5060010190565b600082601f83011261136a57600080fd5b8151611378610de882610db2565b81815284602083860101111561138d57600080fd5b61109b826020830160208701610ebb565b6000806000606084860312156113b357600080fd5b835167ffffffffffffffff808211156113cb57600080fd5b6113d787838801611359565b94506020860151935060408601519150808211156113f457600080fd5b5061125f86828701611359565b60008251611413818460208701610ebb565b9190910192915050565b60006020828403121561142f57600080fd5b5051919050565b6080815260006114496080830187610edf565b6020830195909552506040810192909252606090910152919050565b60006020828403121561147757600080fd5b81518015158114610cea57600080fd5b60008351611499818460208801610ebb565b601760f91b90830190815283516114b7816001840160208801610ebb565b01600101949350505050565b601f82111561150d57600081815260208120601f850160051c810160208610156114ea5750805b601f850160051c820191505b81811015611509578281556001016114f6565b5050505b505050565b815167ffffffffffffffff81111561152c5761152c610d6b565b6115408161153a84546112b4565b846114c3565b602080601f831160018114611575576000841561155d5750858301515b600019600386901b1c1916600185901b178555611509565b600085815260208120601f198616915b828110156115a457888601518255948401946001909101908401611585565b50858210156115c25787850151600019600388901b60f8161c191681555b5050505050600190811b01905550565b8381526060602082015260006115eb6060830185610edf565b905060018060a01b0383166040830152949350505050565b80820281158282048414176102bf576102bf6112ee56fea2646970667358221220e7372d3f4f8005d16f2101678a7f2d0dd3fd7f323b194a32a1d436d1dac3419064736f6c63430008140033",
  "devdoc": {
    "kind": "dev",
    "methods": {},
    "version": 1
  },
  "userdoc": {
    "kind": "user",
    "methods": {
      "imageId()": {
        "notice": "Image ID of the only zkVM binary to accept verification from."
      },
      "projectIdOfDomain(string)": {
        "notice": "get the projectId by domain, if the domain is not registered, return 0"
      }
    },
    "version": 1
  },
  "storageLayout": {
    "storage": [
      {
        "astId": 8,
        "contract": "contracts/ODESEC.sol:ODESEC",
        "label": "verifier",
        "offset": 0,
        "slot": "0",
        "type": "t_contract(IRiscZeroVerifier)2021"
      },
      {
        "astId": 11,
        "contract": "contracts/ODESEC.sol:ODESEC",
        "label": "imageId",
        "offset": 0,
        "slot": "1",
        "type": "t_bytes32"
      },
      {
        "astId": 15,
        "contract": "contracts/ODESEC.sol:ODESEC",
        "label": "totalProjects",
        "offset": 0,
        "slot": "2",
        "type": "t_uint256"
      },
      {
        "astId": 41,
        "contract": "contracts/ODESEC.sol:ODESEC",
        "label": "projects",
        "offset": 0,
        "slot": "3",
        "type": "t_mapping(t_uint256,t_struct(ProjectData)36_storage)"
      },
      {
        "astId": 45,
        "contract": "contracts/ODESEC.sol:ODESEC",
        "label": "projectIds",
        "offset": 0,
        "slot": "4",
        "type": "t_mapping(t_bytes32,t_uint256)"
      }
    ],
    "types": {
      "t_address": {
        "encoding": "inplace",
        "label": "address",
        "numberOfBytes": "20"
      },
      "t_array(t_address)dyn_storage": {
        "base": "t_address",
        "encoding": "dynamic_array",
        "label": "address[]",
        "numberOfBytes": "32"
      },
      "t_bytes32": {
        "encoding": "inplace",
        "label": "bytes32",
        "numberOfBytes": "32"
      },
      "t_contract(IRiscZeroVerifier)2021": {
        "encoding": "inplace",
        "label": "contract IRiscZeroVerifier",
        "numberOfBytes": "20"
      },
      "t_mapping(t_bytes32,t_uint256)": {
        "encoding": "mapping",
        "key": "t_bytes32",
        "label": "mapping(bytes32 => uint256)",
        "numberOfBytes": "32",
        "value": "t_uint256"
      },
      "t_mapping(t_uint256,t_struct(ProjectData)36_storage)": {
        "encoding": "mapping",
        "key": "t_uint256",
        "label": "mapping(uint256 => struct ODESEC.ProjectData)",
        "numberOfBytes": "32",
        "value": "t_struct(ProjectData)36_storage"
      },
      "t_string_storage": {
        "encoding": "bytes",
        "label": "string",
        "numberOfBytes": "32"
      },
      "t_struct(ProjectData)36_storage": {
        "encoding": "inplace",
        "label": "struct ODESEC.ProjectData",
        "members": [
          {
            "astId": 28,
            "contract": "contracts/ODESEC.sol:ODESEC",
            "label": "owner",
            "offset": 0,
            "slot": "0",
            "type": "t_address"
          },
          {
            "astId": 31,
            "contract": "contracts/ODESEC.sol:ODESEC",
            "label": "contracts",
            "offset": 0,
            "slot": "1",
            "type": "t_array(t_address)dyn_storage"
          },
          {
            "astId": 33,
            "contract": "contracts/ODESEC.sol:ODESEC",
            "label": "domain",
            "offset": 0,
            "slot": "2",
            "type": "t_string_storage"
          },
          {
            "astId": 35,
            "contract": "contracts/ODESEC.sol:ODESEC",
            "label": "contact",
            "offset": 0,
            "slot": "3",
            "type": "t_string_storage"
          }
        ],
        "numberOfBytes": "128"
      },
      "t_uint256": {
        "encoding": "inplace",
        "label": "uint256",
        "numberOfBytes": "32"
      }
    }
  }
}