{
  "address": "0x5A5A08A118E11A4FE56D5c7cc752aAb7d45330f5",
  "abi": [
    {
      "inputs": [],
      "stateMutability": "nonpayable",
      "type": "constructor"
    },
    {
      "inputs": [],
      "name": "CONTROL_ID_0",
      "outputs": [
        {
          "internalType": "uint256",
          "name": "",
          "type": "uint256"
        }
      ],
      "stateMutability": "view",
      "type": "function"
    },
    {
      "inputs": [],
      "name": "CONTROL_ID_1",
      "outputs": [
        {
          "internalType": "uint256",
          "name": "",
          "type": "uint256"
        }
      ],
      "stateMutability": "view",
      "type": "function"
    },
    {
      "inputs": [
        {
          "internalType": "bytes",
          "name": "seal",
          "type": "bytes"
        },
        {
          "internalType": "bytes32",
          "name": "imageId",
          "type": "bytes32"
        },
        {
          "internalType": "bytes32",
          "name": "postStateDigest",
          "type": "bytes32"
        },
        {
          "internalType": "bytes32",
          "name": "journalDigest",
          "type": "bytes32"
        }
      ],
      "name": "verify",
      "outputs": [
        {
          "internalType": "bool",
          "name": "",
          "type": "bool"
        }
      ],
      "stateMutability": "view",
      "type": "function"
    },
    {
      "inputs": [
        {
          "internalType": "uint256[2]",
          "name": "_pA",
          "type": "uint256[2]"
        },
        {
          "internalType": "uint256[2][2]",
          "name": "_pB",
          "type": "uint256[2][2]"
        },
        {
          "internalType": "uint256[2]",
          "name": "_pC",
          "type": "uint256[2]"
        },
        {
          "internalType": "uint256[4]",
          "name": "_pubSignals",
          "type": "uint256[4]"
        }
      ],
      "name": "verifyProof",
      "outputs": [
        {
          "internalType": "bool",
          "name": "",
          "type": "bool"
        }
      ],
      "stateMutability": "view",
      "type": "function"
    },
    {
      "inputs": [
        {
          "components": [
            {
              "internalType": "bytes",
              "name": "seal",
              "type": "bytes"
            },
            {
              "components": [
                {
                  "internalType": "bytes32",
                  "name": "preStateDigest",
                  "type": "bytes32"
                },
                {
                  "internalType": "bytes32",
                  "name": "postStateDigest",
                  "type": "bytes32"
                },
                {
                  "components": [
                    {
                      "internalType": "enum SystemExitCode",
                      "name": "system",
                      "type": "uint8"
                    },
                    {
                      "internalType": "uint8",
                      "name": "user",
                      "type": "uint8"
                    }
                  ],
                  "internalType": "struct ExitCode",
                  "name": "exitCode",
                  "type": "tuple"
                },
                {
                  "internalType": "bytes32",
                  "name": "input",
                  "type": "bytes32"
                },
                {
                  "internalType": "bytes32",
                  "name": "output",
                  "type": "bytes32"
                }
              ],
              "internalType": "struct ReceiptClaim",
              "name": "claim",
              "type": "tuple"
            }
          ],
          "internalType": "struct Receipt",
          "name": "receipt",
          "type": "tuple"
        }
      ],
      "name": "verify_integrity",
      "outputs": [
        {
          "internalType": "bool",
          "name": "",
          "type": "bool"
        }
      ],
      "stateMutability": "view",
      "type": "function"
    }
  ],
  "transactionHash": "0x0e725c01da538ee3a0a36866064a6732135177b53a35367e512198d7cd762c9b",
  "args": [],
  "numDeployments": 1,
  "solcInputHash": "7ba06b2fe933858123412f6421e68663",
  "bytecode": "0x60c060405234801561001057600080fd5b506f39ff805954f4eb2868d338764408f76d6080526f15cf3a5f4097269e3a6d921c1862553160a05260805160a05161115461006a6000396000818160e401526101910152600081816061015261016b01526111546000f3fe608060405234801561001057600080fd5b50600436106100575760003560e01c8063168b11461461005c5780631bb8068f146100965780635fe8c13b146100b95780636efef009146100cc57806386039a31146100df575b600080fd5b6100837f000000000000000000000000000000000000000000000000000000000000000081565b6040519081526020015b60405180910390f35b6100a96100a4366004610d07565b610106565b604051901515815260200161008d565b6100a96100c7366004610dfb565b610228565b6100a96100da366004610e55565b6107a0565b6100837f000000000000000000000000000000000000000000000000000000000000000081565b600080600061012061011b856020015161084f565b6109b4565b915091506000846000015180602001905181019061013e9190610f2d565b9050306001600160a01b0316635fe8c13b82600001518360200151846040015160405180608001604052807f000000000000000000000000000000000000000000000000000000000000000081526020017f00000000000000000000000000000000000000000000000000000000000000008152602001898152602001888152506040518563ffffffff1660e01b81526004016101de9493929190610ff0565b602060405180830381865afa1580156101fb573d6000803e3d6000fd5b505050506040513d601f19601f8201168201806040525081019061021f9190611097565b95945050505050565b600061073b565b7f30644e72e131a029b85045b68181585d97816a916871ca8d3c208c16d87cfd478110610260576000805260206000f35b50565b600060405183815284602082015285604082015260408160608360076107d05a03fa915081610296576000805260206000f35b825160408201526020830151606082015260408360808360066107d05a03fa915050806102c7576000805260206000f35b5050505050565b7f0a290a37e44495f8ba6f79b790a262a73130a55a228e288ef18d4ea322be57bb85527f1e04c986599fc5c27efa1e96335b142c9af7c665db8cc2beec2df46a413a8d0f60208601526000608086018661036b87357f010a4a6f7eaba5eb044fca50e7c0bf141855fdc799bba8df8613fbfb8fb4f6ca7f2a48c804fc0a598530f368cec38e4ffa1c28ea493c5974795cb753752cdcf11584610263565b6103bb60208801357f22327e74a9614ae127168748cf3be7e4b1b97e95b62100cc614de340bc9b83837f15a9d4452a9749d08cf15886ff3dbdb6d5241cb2bb3305f8359161653e9bd7b384610263565b61040b60408801357f2f57c67f49c731842f676749e686e0f65a397ccf0ac98dceddbe2adde6808b017f0a5792b9591ec6c58fe22e0de47c9d5a50a51305c316cd53ce5d2cfafd499a4684610263565b61045b60608801357f1751024dbc2dec7470617907ddf19a7d48601b86b937bbe1065579c11e5977877f26f5f5f0cea15dd7b79310095e6052b62eee2b5bfc2d2125802801df17bd891584610263565b50823581527f30644e72e131a029b85045b68181585d97816a916871ca8d3c208c16d87cfd4760208401357f30644e72e131a029b85045b68181585d97816a916871ca8d3c208c16d87cfd4703066020820152833560408201526020840135606082015260408401356080820152606084013560a08201527f2d4d9aa7e302d9df41749d5507949d05dbea33fbb16c643b22f599a2be6df2e260c08201527f14bedd503c37ceb061d8ec60209fe345ce89830a19230301f076caff004d192660e08201527f0967032fcbf776d1afc985f88877f182d38480a653f2decaa9794cbc3bf3060c6101008201527f0e187847ad4c798374d0d6732bf501847dd68bc0e071241e0213bc7fc13db7ab6101208201527f304cfbd1e08a704a99f5e847d93f8c3caafddec46b7a0d379da69a4d112346a76101408201527f1739c1b1a457a8c7313123d24d2f9192f896b7c63eea05a9d57f06547ad0cec8610160820152600087015161018082015260206000018701516101a08201527f198e9393920d483a7260bfb731fb5d25f1aa493335a9e71297e485b7aef312c26101c08201527f1800deef121f1e76426a00665e5c4479674322d4f75edadd46debd5cd992f6ed6101e08201527f090689d0585ff075ec9e99ad690c3395bc4b313370b38ef355acdadcd122975b6102008201527f12c85ea5db8c6deb4aab71808dcb408fe3d1e7690c43d37b4ce6cc0166fa7daa610220820152843561024082015260208501356102608201527f2da0a8f2daa8496a8f3fcc27be3a6f95d0fd194c104cc2561ae945b9ef62b2156102808201527f2e768fbb4a79cc667c24913b8ea6130949faee1b4ef9e492dd083a705a7ecae36102a08201527f1028bb38e50f245677993cd944b3ff74af7bf9f7527cee8e604c6220a848c5be6102c08201527f2b492fc9489ac9d6041f3836baf93a109f9253529d8012e01ce011c316c83be66102e08201526020816103008360086107d05a03fa9051169695505050505050565b6040516103808101604052610753600084013561022f565b610760602084013561022f565b61076d604084013561022f565b61077a606084013561022f565b610787608084013561022f565b610794818486888a6102ce565b90508060005260206000f35b6040805160606020601f88018190040282018101835291810186815260009283929182918a908a9081908501838280828437600092018290525093855250506040805160a0810182528a815260208082018b9052825180840184528581528082018690528284015260608201859052825180840190935289835282810194909452929093019260808301915061083590610b23565b90529052905061084481610106565b979650505050505050565b6000600280604051610879907172697363302e52656365697074436c61696d60701b815260120190565b602060405180830381855afa158015610896573d6000803e3d6000fd5b5050506040513d601f19601f820116820180604052508101906108b991906110d6565b606084015184516020860151608087015160408801515160189060028111156108e4576108e46110c0565b60408a810151602090810151825191820199909952908101969096526060860194909452608085019290925260a084015263ffffffff909116901b60e01b6001600160e01b03191660c082015260f89190911b6001600160f81b03191660c4820152600160fa1b60c882015260ca015b60408051601f198184030181529082905261096e916110ef565b602060405180830381855afa15801561098b573d6000803e3d6000fd5b5050506040513d601f19601f820116820180604052508101906109ae91906110d6565b92915050565b60008080610b018460008190506008817eff00ff00ff00ff00ff00ff00ff00ff00ff00ff00ff00ff00ff00ff00ff00ff16901b6008827fff00ff00ff00ff00ff00ff00ff00ff00ff00ff00ff00ff00ff00ff00ff00ff0016901c1790506010817dffff0000ffff0000ffff0000ffff0000ffff0000ffff0000ffff0000ffff16901b6010827fffff0000ffff0000ffff0000ffff0000ffff0000ffff0000ffff0000ffff000016901c1790506020817bffffffff00000000ffffffff00000000ffffffff00000000ffffffff16901b6020827fffffffff00000000ffffffff00000000ffffffff00000000ffffffff0000000016901c17905060408177ffffffffffffffff0000000000000000ffffffffffffffff16901b60408277ffffffffffffffff0000000000000000ffffffffffffffff1916901c179050608081901b608082901c179050919050565b6fffffffffffffffffffffffffffffffff81169560809190911c945092505050565b6000600280604051610b47906b1c9a5cd8cc0b93dd5d1c1d5d60a21b8152600c0190565b602060405180830381855afa158015610b64573d6000803e3d6000fd5b5050506040513d601f19601f82011682018060405250810190610b8791906110d6565b83516020808601516040805192830194909452928101919091526060810191909152600160f91b6080820152608201610954565b634e487b7160e01b600052604160045260246000fd5b60405160a0810167ffffffffffffffff81118282101715610bf457610bf4610bbb565b60405290565b6040805190810167ffffffffffffffff81118282101715610bf457610bf4610bbb565b6040516060810167ffffffffffffffff81118282101715610bf457610bf4610bbb565b604051601f8201601f1916810167ffffffffffffffff81118282101715610c6957610c69610bbb565b604052919050565b600081830360c0811215610c8457600080fd5b610c8c610bd1565b915082358252602083013560208301526040603f1982011215610cae57600080fd5b50610cb7610bfa565b604083013560038110610cc957600080fd5b8152606083013560ff81168114610cdf57600080fd5b80602083015250806040830152506080820135606082015260a0820135608082015292915050565b60006020808385031215610d1a57600080fd5b823567ffffffffffffffff80821115610d3257600080fd5b9084019060e08287031215610d4657600080fd5b610d4e610bfa565b823582811115610d5d57600080fd5b8301601f81018813610d6e57600080fd5b803583811115610d8057610d80610bbb565b610d92601f8201601f19168701610c40565b93508084528886828401011115610da857600080fd5b8086830187860137600090840186015250818152610dc887848601610c71565b848201528094505050505092915050565b80604081018310156109ae57600080fd5b80608081018310156109ae57600080fd5b6000806000806101808587031215610e1257600080fd5b610e1c8686610dd9565b9350610e2b8660408701610dea565b9250610e3a8660c08701610dd9565b9150610e4a866101008701610dea565b905092959194509250565b600080600080600060808688031215610e6d57600080fd5b853567ffffffffffffffff80821115610e8557600080fd5b818801915088601f830112610e9957600080fd5b813581811115610ea857600080fd5b896020828501011115610eba57600080fd5b60209283019a909950918801359760408101359750606001359550909350505050565b600082601f830112610eee57600080fd5b610ef6610bfa565b806040840185811115610f0857600080fd5b845b81811015610f22578051845260209384019301610f0a565b509095945050505050565b60006101008284031215610f4057600080fd5b610f48610c1d565b610f528484610edd565b8152604084605f850112610f6557600080fd5b610f6d610bfa565b8060c0860187811115610f7f57600080fd5b8387015b81811015610fa457610f958982610edd565b84526020909301928401610f83565b50816020860152610fb58882610edd565b84860152505050508091505092915050565b8060005b6002811015610fea578151845260209384019390910190600101610fcb565b50505050565b6101808101610fff8287610fc7565b60408083018660005b60028082106110175750611052565b82518460005b8381101561103b57825182526020928301929091019060010161101d565b505050928401925060209190910190600101611008565b5050505061106360c0830185610fc7565b61010082018360005b600481101561108b57815183526020928301929091019060010161106c565b50505095945050505050565b6000602082840312156110a957600080fd5b815180151581146110b957600080fd5b9392505050565b634e487b7160e01b600052602160045260246000fd5b6000602082840312156110e857600080fd5b5051919050565b6000825160005b8181101561111057602081860181015185830152016110f6565b50600092019182525091905056fea264697066735822122006cda0c98e2f9acd1e09be3a9d0efc25b33d6a38d38066c6bb00e651a66c2d7e64736f6c63430008140033",
  "devdoc": {
    "kind": "dev",
    "methods": {
      "verify(bytes,bytes32,bytes32,bytes32)": {
        "details": "This method additionally ensures that the input hash is all-zeros (i.e. no committed input), the exit code is (Halted, 0), and there are no assumptions (i.e. the receipt is unconditional).",
        "params": {
          "imageId": "The identifier for the guest program.",
          "journalDigest": "The SHA-256 digest of the journal bytes.",
          "postStateDigest": "A hash of the final memory state. Required to run the verifier, but     otherwise can be left unconstrained for most use cases.",
          "seal": "The encoded cryptographic proof (i.e. SNARK)."
        },
        "returns": {
          "_0": "true if the receipt passes the verification checks. The return code must be checked."
        }
      },
      "verify_integrity((bytes,(bytes32,bytes32,(uint8,uint8),bytes32,bytes32)))": {
        "params": {
          "receipt": "The receipt to be verified."
        },
        "returns": {
          "_0": "true if the receipt passes the verification checks. The return code must be checked."
        }
      }
    },
    "version": 1
  },
  "userdoc": {
    "kind": "user",
    "methods": {
      "CONTROL_ID_0()": {
        "notice": "Control ID hash for the identity_p254 predicate decomposed by `splitDigest`."
      },
      "verify(bytes,bytes32,bytes32,bytes32)": {
        "notice": "Verify that the given seal is a valid RISC Zero proof of execution with the     given image ID, post-state digest, and journal digest."
      },
      "verify_integrity((bytes,(bytes32,bytes32,(uint8,uint8),bytes32,bytes32)))": {
        "notice": "Verify that the given receipt is a valid RISC Zero receipt, ensuring the `seal` is valid a cryptographic proof of the execution with the given `claim`."
      }
    },
    "version": 1
  },
  "storageLayout": {
    "storage": [],
    "types": null
  }
}